{
  "_format": "hh-sol-artifact-1",
  "contractName": "NFTHUB",
  "sourceName": "contracts/NFTHUB.sol",
  "abi": [
    {
      "inputs": [],
      "stateMutability": "nonpayable",
      "type": "constructor"
    },
    {
      "anonymous": false,
      "inputs": [
        {
          "indexed": true,
          "internalType": "address",
          "name": "owner",
          "type": "address"
        },
        {
          "indexed": true,
          "internalType": "address",
          "name": "approved",
          "type": "address"
        },
        {
          "indexed": true,
          "internalType": "uint256",
          "name": "tokenId",
          "type": "uint256"
        }
      ],
      "name": "Approval",
      "type": "event"
    },
    {
      "anonymous": false,
      "inputs": [
        {
          "indexed": true,
          "internalType": "address",
          "name": "owner",
          "type": "address"
        },
        {
          "indexed": true,
          "internalType": "address",
          "name": "operator",
          "type": "address"
        },
        {
          "indexed": false,
          "internalType": "bool",
          "name": "approved",
          "type": "bool"
        }
      ],
      "name": "ApprovalForAll",
      "type": "event"
    },
    {
      "anonymous": false,
      "inputs": [
        {
          "indexed": true,
          "internalType": "uint256",
          "name": "id",
          "type": "uint256"
        },
        {
          "indexed": false,
          "internalType": "string",
          "name": "name",
          "type": "string"
        },
        {
          "indexed": false,
          "internalType": "string",
          "name": "tokenURI",
          "type": "string"
        }
      ],
      "name": "ItemListed",
      "type": "event"
    },
    {
      "anonymous": false,
      "inputs": [
        {
          "indexed": true,
          "internalType": "address",
          "name": "from",
          "type": "address"
        },
        {
          "indexed": true,
          "internalType": "address",
          "name": "to",
          "type": "address"
        },
        {
          "indexed": true,
          "internalType": "uint256",
          "name": "tokenId",
          "type": "uint256"
        }
      ],
      "name": "Transfer",
      "type": "event"
    },
    {
      "inputs": [
        {
          "internalType": "address",
          "name": "to",
          "type": "address"
        },
        {
          "internalType": "uint256",
          "name": "tokenId",
          "type": "uint256"
        }
      ],
      "name": "approve",
      "outputs": [],
      "stateMutability": "nonpayable",
      "type": "function"
    },
    {
      "inputs": [
        {
          "internalType": "address",
          "name": "owner",
          "type": "address"
        }
      ],
      "name": "balanceOf",
      "outputs": [
        {
          "internalType": "uint256",
          "name": "",
          "type": "uint256"
        }
      ],
      "stateMutability": "view",
      "type": "function"
    },
    {
      "inputs": [
        {
          "internalType": "uint256",
          "name": "itemId",
          "type": "uint256"
        }
      ],
      "name": "fetchItem",
      "outputs": [
        {
          "internalType": "uint256",
          "name": "",
          "type": "uint256"
        },
        {
          "internalType": "address",
          "name": "",
          "type": "address"
        },
        {
          "internalType": "address",
          "name": "",
          "type": "address"
        },
        {
          "internalType": "uint256",
          "name": "",
          "type": "uint256"
        },
        {
          "internalType": "string",
          "name": "",
          "type": "string"
        },
        {
          "internalType": "string",
          "name": "",
          "type": "string"
        },
        {
          "internalType": "string",
          "name": "",
          "type": "string"
        }
      ],
      "stateMutability": "view",
      "type": "function"
    },
    {
      "inputs": [],
      "name": "getAllItems",
      "outputs": [
        {
          "components": [
            {
              "internalType": "uint256",
              "name": "id",
              "type": "uint256"
            },
            {
              "internalType": "address",
              "name": "minter",
              "type": "address"
            },
            {
              "internalType": "address",
              "name": "nftAddress",
              "type": "address"
            },
            {
              "internalType": "uint256",
              "name": "tokenId",
              "type": "uint256"
            },
            {
              "internalType": "string",
              "name": "name",
              "type": "string"
            },
            {
              "internalType": "string",
              "name": "description",
              "type": "string"
            },
            {
              "internalType": "string",
              "name": "tokenURI",
              "type": "string"
            }
          ],
          "internalType": "struct NFTHUB.Item[]",
          "name": "",
          "type": "tuple[]"
        }
      ],
      "stateMutability": "view",
      "type": "function"
    },
    {
      "inputs": [
        {
          "internalType": "uint256",
          "name": "tokenId",
          "type": "uint256"
        }
      ],
      "name": "getApproved",
      "outputs": [
        {
          "internalType": "address",
          "name": "",
          "type": "address"
        }
      ],
      "stateMutability": "view",
      "type": "function"
    },
    {
      "inputs": [],
      "name": "getListingPrice",
      "outputs": [
        {
          "internalType": "uint256",
          "name": "",
          "type": "uint256"
        }
      ],
      "stateMutability": "view",
      "type": "function"
    },
    {
      "inputs": [
        {
          "internalType": "address",
          "name": "owner",
          "type": "address"
        },
        {
          "internalType": "address",
          "name": "operator",
          "type": "address"
        }
      ],
      "name": "isApprovedForAll",
      "outputs": [
        {
          "internalType": "bool",
          "name": "",
          "type": "bool"
        }
      ],
      "stateMutability": "view",
      "type": "function"
    },
    {
      "inputs": [
        {
          "internalType": "string",
          "name": "name",
          "type": "string"
        },
        {
          "internalType": "string",
          "name": "description",
          "type": "string"
        },
        {
          "internalType": "string",
          "name": "tokenURI",
          "type": "string"
        }
      ],
      "name": "listNFT",
      "outputs": [],
      "stateMutability": "payable",
      "type": "function"
    },
    {
      "inputs": [],
      "name": "name",
      "outputs": [
        {
          "internalType": "string",
          "name": "",
          "type": "string"
        }
      ],
      "stateMutability": "view",
      "type": "function"
    },
    {
      "inputs": [
        {
          "internalType": "uint256",
          "name": "tokenId",
          "type": "uint256"
        }
      ],
      "name": "ownerOf",
      "outputs": [
        {
          "internalType": "address",
          "name": "",
          "type": "address"
        }
      ],
      "stateMutability": "view",
      "type": "function"
    },
    {
      "inputs": [
        {
          "internalType": "address",
          "name": "from",
          "type": "address"
        },
        {
          "internalType": "address",
          "name": "to",
          "type": "address"
        },
        {
          "internalType": "uint256",
          "name": "tokenId",
          "type": "uint256"
        }
      ],
      "name": "safeTransferFrom",
      "outputs": [],
      "stateMutability": "nonpayable",
      "type": "function"
    },
    {
      "inputs": [
        {
          "internalType": "address",
          "name": "from",
          "type": "address"
        },
        {
          "internalType": "address",
          "name": "to",
          "type": "address"
        },
        {
          "internalType": "uint256",
          "name": "tokenId",
          "type": "uint256"
        },
        {
          "internalType": "bytes",
          "name": "data",
          "type": "bytes"
        }
      ],
      "name": "safeTransferFrom",
      "outputs": [],
      "stateMutability": "nonpayable",
      "type": "function"
    },
    {
      "inputs": [
        {
          "internalType": "address",
          "name": "operator",
          "type": "address"
        },
        {
          "internalType": "bool",
          "name": "approved",
          "type": "bool"
        }
      ],
      "name": "setApprovalForAll",
      "outputs": [],
      "stateMutability": "nonpayable",
      "type": "function"
    },
    {
      "inputs": [
        {
          "internalType": "uint256",
          "name": "newPrice",
          "type": "uint256"
        }
      ],
      "name": "setListingPrice",
      "outputs": [],
      "stateMutability": "nonpayable",
      "type": "function"
    },
    {
      "inputs": [
        {
          "internalType": "bytes4",
          "name": "interfaceId",
          "type": "bytes4"
        }
      ],
      "name": "supportsInterface",
      "outputs": [
        {
          "internalType": "bool",
          "name": "",
          "type": "bool"
        }
      ],
      "stateMutability": "view",
      "type": "function"
    },
    {
      "inputs": [],
      "name": "symbol",
      "outputs": [
        {
          "internalType": "string",
          "name": "",
          "type": "string"
        }
      ],
      "stateMutability": "view",
      "type": "function"
    },
    {
      "inputs": [
        {
          "internalType": "uint256",
          "name": "tokenId",
          "type": "uint256"
        }
      ],
      "name": "tokenURI",
      "outputs": [
        {
          "internalType": "string",
          "name": "",
          "type": "string"
        }
      ],
      "stateMutability": "view",
      "type": "function"
    },
    {
      "inputs": [
        {
          "internalType": "address",
          "name": "from",
          "type": "address"
        },
        {
          "internalType": "address",
          "name": "to",
          "type": "address"
        },
        {
          "internalType": "uint256",
          "name": "tokenId",
          "type": "uint256"
        }
      ],
      "name": "transferFrom",
      "outputs": [],
      "stateMutability": "nonpayable",
      "type": "function"
    }
  ],
  "bytecode": "0x60806040526001600b553480156200001657600080fd5b506040518060400160405280600681526020017f4e465448554200000000000000000000000000000000000000000000000000008152506040518060400160405280600481526020017f4e46544800000000000000000000000000000000000000000000000000000000815250600160008190555081600190816200009c919062000372565b508060029081620000ae919062000372565b50505033600a60006101000a81548173ffffffffffffffffffffffffffffffffffffffff021916908373ffffffffffffffffffffffffffffffffffffffff16021790555062000459565b600081519050919050565b7f4e487b7100000000000000000000000000000000000000000000000000000000600052604160045260246000fd5b7f4e487b7100000000000000000000000000000000000000000000000000000000600052602260045260246000fd5b600060028204905060018216806200017a57607f821691505b60208210810362000190576200018f62000132565b5b50919050565b60008190508160005260206000209050919050565b60006020601f8301049050919050565b600082821b905092915050565b600060088302620001fa7fffffffffffffffffffffffffffffffffffffffffffffffffffffffffffffffff82620001bb565b620002068683620001bb565b95508019841693508086168417925050509392505050565b6000819050919050565b6000819050919050565b6000620002536200024d62000247846200021e565b62000228565b6200021e565b9050919050565b6000819050919050565b6200026f8362000232565b620002876200027e826200025a565b848454620001c8565b825550505050565b600090565b6200029e6200028f565b620002ab81848462000264565b505050565b5b81811015620002d357620002c760008262000294565b600181019050620002b1565b5050565b601f8211156200032257620002ec8162000196565b620002f784620001ab565b8101602085101562000307578190505b6200031f6200031685620001ab565b830182620002b0565b50505b505050565b600082821c905092915050565b6000620003476000198460080262000327565b1980831691505092915050565b600062000362838362000334565b9150826002028217905092915050565b6200037d82620000f8565b67ffffffffffffffff81111562000399576200039862000103565b5b620003a5825462000161565b620003b2828285620002d7565b600060209050601f831160018114620003ea5760008415620003d5578287015190505b620003e1858262000354565b86555062000451565b601f198416620003fa8662000196565b60005b828110156200042457848901518255600182019150602085019450602081019050620003fd565b8683101562000444578489015162000440601f89168262000334565b8355505b6001600288020188555050505b505050505050565b61402b80620004696000396000f3fe6080604052600436106101095760003560e01c80636352211e11610095578063a22cb46511610064578063a22cb4651461036e578063ad4b9cfb14610397578063b88d4fde146103da578063c87b56dd14610403578063e985e9c51461044057610109565b80636352211e146102a057806370a08231146102dd5780637c726b691461031a57806395d89b411461034357610109565b806312e85585116100dc57806312e85585146101dc57806323b872dd1461020757806342842e0e146102305780634ba1d6aa1461025957806355068b8a1461028457610109565b806301ffc9a71461010e57806306fdde031461014b578063081812fc14610176578063095ea7b3146101b3575b600080fd5b34801561011a57600080fd5b5061013560048036038101906101309190612823565b61047d565b604051610142919061286b565b60405180910390f35b34801561015757600080fd5b5061016061055f565b60405161016d9190612916565b60405180910390f35b34801561018257600080fd5b5061019d6004803603810190610198919061296e565b6105f1565b6040516101aa91906129dc565b60405180910390f35b3480156101bf57600080fd5b506101da60048036038101906101d59190612a23565b610637565b005b3480156101e857600080fd5b506101f161074e565b6040516101fe9190612a72565b60405180910390f35b34801561021357600080fd5b5061022e60048036038101906102299190612a8d565b610758565b005b34801561023c57600080fd5b5061025760048036038101906102529190612a8d565b6107b8565b005b34801561026557600080fd5b5061026e6107d8565b60405161027b9190612cb4565b60405180910390f35b61029e60048036038101906102999190612d3b565b610b31565b005b3480156102ac57600080fd5b506102c760048036038101906102c2919061296e565b610ffd565b6040516102d491906129dc565b60405180910390f35b3480156102e957600080fd5b5061030460048036038101906102ff9190612def565b611083565b6040516103119190612a72565b60405180910390f35b34801561032657600080fd5b50610341600480360381019061033c919061296e565b61113a565b005b34801561034f57600080fd5b506103586111d4565b6040516103659190612916565b60405180910390f35b34801561037a57600080fd5b5061039560048036038101906103909190612e48565b611266565b005b3480156103a357600080fd5b506103be60048036038101906103b9919061296e565b61127c565b6040516103d19796959493929190612e88565b60405180910390f35b3480156103e657600080fd5b5061040160048036038101906103fc919061303c565b611561565b005b34801561040f57600080fd5b5061042a6004803603810190610425919061296e565b6115c3565b6040516104379190612916565b60405180910390f35b34801561044c57600080fd5b50610467600480360381019061046291906130bf565b6116d5565b604051610474919061286b565b60405180910390f35b60007f80ac58cd000000000000000000000000000000000000000000000000000000007bffffffffffffffffffffffffffffffffffffffffffffffffffffffff1916827bffffffffffffffffffffffffffffffffffffffffffffffffffffffff1916148061054857507f5b5e139f000000000000000000000000000000000000000000000000000000007bffffffffffffffffffffffffffffffffffffffffffffffffffffffff1916827bffffffffffffffffffffffffffffffffffffffffffffffffffffffff1916145b80610558575061055782611769565b5b9050919050565b60606001805461056e9061312e565b80601f016020809104026020016040519081016040528092919081815260200182805461059a9061312e565b80156105e75780601f106105bc576101008083540402835291602001916105e7565b820191906000526020600020905b8154815290600101906020018083116105ca57829003601f168201915b5050505050905090565b60006105fc826117d3565b6005600083815260200190815260200160002060009054906101000a900473ffffffffffffffffffffffffffffffffffffffff169050919050565b600061064282610ffd565b90508073ffffffffffffffffffffffffffffffffffffffff168373ffffffffffffffffffffffffffffffffffffffff16036106b2576040517f08c379a00000000000000000000000000000000000000000000000000000000081526004016106a9906131d1565b60405180910390fd5b8073ffffffffffffffffffffffffffffffffffffffff166106d161181e565b73ffffffffffffffffffffffffffffffffffffffff16148061070057506106ff816106fa61181e565b6116d5565b5b61073f576040517f08c379a000000000000000000000000000000000000000000000000000000000815260040161073690613263565b60405180910390fd5b6107498383611826565b505050565b6000600b54905090565b61076961076361181e565b826118df565b6107a8576040517f08c379a000000000000000000000000000000000000000000000000000000000815260040161079f906132f5565b60405180910390fd5b6107b3838383611974565b505050565b6107d383838360405180602001604052806000815250611561565b505050565b606060006107e66009611c6d565b67ffffffffffffffff8111156107ff576107fe612f11565b5b60405190808252806020026020018201604052801561083857816020015b61082561274e565b81526020019060019003908161081d5790505b5090506000600190505b61084c6009611c6d565b8111610b29576000600c60008381526020019081526020016000209050806040518060e0016040529081600082015481526020016001820160009054906101000a900473ffffffffffffffffffffffffffffffffffffffff1673ffffffffffffffffffffffffffffffffffffffff1673ffffffffffffffffffffffffffffffffffffffff1681526020016002820160009054906101000a900473ffffffffffffffffffffffffffffffffffffffff1673ffffffffffffffffffffffffffffffffffffffff1673ffffffffffffffffffffffffffffffffffffffff168152602001600382015481526020016004820180546109459061312e565b80601f01602080910402602001604051908101604052809291908181526020018280546109719061312e565b80156109be5780601f10610993576101008083540402835291602001916109be565b820191906000526020600020905b8154815290600101906020018083116109a157829003601f168201915b505050505081526020016005820180546109d79061312e565b80601f0160208091040260200160405190810160405280929190818152602001828054610a039061312e565b8015610a505780601f10610a2557610100808354040283529160200191610a50565b820191906000526020600020905b815481529060010190602001808311610a3357829003601f168201915b50505050508152602001600682018054610a699061312e565b80601f0160208091040260200160405190810160405280929190818152602001828054610a959061312e565b8015610ae25780601f10610ab757610100808354040283529160200191610ae2565b820191906000526020600020905b815481529060010190602001808311610ac557829003601f168201915b50505050508152505083600184610af99190613344565b81518110610b0a57610b09613378565b5b6020026020010181905250508080610b21906133a7565b915050610842565b508091505090565b610b39611c7b565b600b54341015610b7e576040517f08c379a0000000000000000000000000000000000000000000000000000000008152600401610b759061343b565b60405180910390fd5b60008686905011610bc4576040517f08c379a0000000000000000000000000000000000000000000000000000000008152600401610bbb906134a7565b60405180910390fd5b60008484905011610c0a576040517f08c379a0000000000000000000000000000000000000000000000000000000008152600401610c0190613513565b60405180910390fd5b60008282905011610c50576040517f08c379a0000000000000000000000000000000000000000000000000000000008152600401610c479061357f565b60405180910390fd5b6000610c5c6008611c6d565b9050610c686008611cca565b610c723382611ce0565b610cc08184848080601f016020809104026020016040519081016040528093929190818152602001838380828437600081840152601f19601f82011690508083019250505050505050611cfe565b610cff6040518060400160405280601d81526020017f4e4654206d696e746564207375636365737366756c6c7920746f20257300000081525033611d6b565b610d096009611cca565b6000610d156009611c6d565b905060006040518060e001604052808381526020013373ffffffffffffffffffffffffffffffffffffffff1681526020013073ffffffffffffffffffffffffffffffffffffffff1681526020018481526020018a8a8080601f016020809104026020016040519081016040528093929190818152602001838380828437600081840152601f19601f82011690508083019250505050505050815260200188888080601f016020809104026020016040519081016040528093929190818152602001838380828437600081840152601f19601f82011690508083019250505050505050815260200186868080601f016020809104026020016040519081016040528093929190818152602001838380828437600081840152601f19601f82011690508083019250505050505050815250905080600c60008481526020019081526020016000206000820151816000015560208201518160010160006101000a81548173ffffffffffffffffffffffffffffffffffffffff021916908373ffffffffffffffffffffffffffffffffffffffff16021790555060408201518160020160006101000a81548173ffffffffffffffffffffffffffffffffffffffff021916908373ffffffffffffffffffffffffffffffffffffffff160217905550606082015181600301556080820151816004019081610f11919061374b565b5060a0820151816005019081610f27919061374b565b5060c0820151816006019081610f3d919061374b565b50905050817f17c9241037cd7e3073fcec5d60b85d9c193ef49a65b1a49b6c806c5c3c6b4fd88a8a8888604051610f77949392919061384a565b60405180910390a2600a60009054906101000a900473ffffffffffffffffffffffffffffffffffffffff1673ffffffffffffffffffffffffffffffffffffffff166108fc600b549081150290604051600060405180830381858888f19350505050158015610fe9573d6000803e3d6000fd5b50505050610ff5611e07565b505050505050565b60008061100983611e11565b9050600073ffffffffffffffffffffffffffffffffffffffff168173ffffffffffffffffffffffffffffffffffffffff160361107a576040517f08c379a0000000000000000000000000000000000000000000000000000000008152600401611071906138d1565b60405180910390fd5b80915050919050565b60008073ffffffffffffffffffffffffffffffffffffffff168273ffffffffffffffffffffffffffffffffffffffff16036110f3576040517f08c379a00000000000000000000000000000000000000000000000000000000081526004016110ea90613963565b60405180910390fd5b600460008373ffffffffffffffffffffffffffffffffffffffff1673ffffffffffffffffffffffffffffffffffffffff168152602001908152602001600020549050919050565b600a60009054906101000a900473ffffffffffffffffffffffffffffffffffffffff1673ffffffffffffffffffffffffffffffffffffffff163373ffffffffffffffffffffffffffffffffffffffff16146111ca576040517f08c379a00000000000000000000000000000000000000000000000000000000081526004016111c1906139cf565b60405180910390fd5b80600b8190555050565b6060600280546111e39061312e565b80601f016020809104026020016040519081016040528092919081815260200182805461120f9061312e565b801561125c5780601f106112315761010080835404028352916020019161125c565b820191906000526020600020905b81548152906001019060200180831161123f57829003601f168201915b5050505050905090565b61127861127161181e565b8383611e4e565b5050565b6000806000806060806060600073ffffffffffffffffffffffffffffffffffffffff16600c60008a815260200190815260200160002060010160009054906101000a900473ffffffffffffffffffffffffffffffffffffffff1673ffffffffffffffffffffffffffffffffffffffff160361132c576040517f08c379a000000000000000000000000000000000000000000000000000000000815260040161132390613a3b565b60405180910390fd5b6000600c60008a8152602001908152602001600020905080600001548160010160009054906101000a900473ffffffffffffffffffffffffffffffffffffffff168260020160009054906101000a900473ffffffffffffffffffffffffffffffffffffffff1683600301548460040185600501866006018280546113af9061312e565b80601f01602080910402602001604051908101604052809291908181526020018280546113db9061312e565b80156114285780601f106113fd57610100808354040283529160200191611428565b820191906000526020600020905b81548152906001019060200180831161140b57829003601f168201915b5050505050925081805461143b9061312e565b80601f01602080910402602001604051908101604052809291908181526020018280546114679061312e565b80156114b45780601f10611489576101008083540402835291602001916114b4565b820191906000526020600020905b81548152906001019060200180831161149757829003601f168201915b505050505091508080546114c79061312e565b80601f01602080910402602001604051908101604052809291908181526020018280546114f39061312e565b80156115405780601f1061151557610100808354040283529160200191611540565b820191906000526020600020905b81548152906001019060200180831161152357829003601f168201915b50505050509050975097509750975097509750975050919395979092949650565b61157261156c61181e565b836118df565b6115b1576040517f08c379a00000000000000000000000000000000000000000000000000000000081526004016115a8906132f5565b60405180910390fd5b6115bd84848484611fba565b50505050565b60606115ce826117d3565b60006007600084815260200190815260200160002080546115ee9061312e565b80601f016020809104026020016040519081016040528092919081815260200182805461161a9061312e565b80156116675780601f1061163c57610100808354040283529160200191611667565b820191906000526020600020905b81548152906001019060200180831161164a57829003601f168201915b505050505090506000611678612016565b9050600081510361168d5781925050506116d0565b6000825111156116c25780826040516020016116aa929190613a97565b604051602081830303815290604052925050506116d0565b6116cb8461202d565b925050505b919050565b6000600660008473ffffffffffffffffffffffffffffffffffffffff1673ffffffffffffffffffffffffffffffffffffffff16815260200190815260200160002060008373ffffffffffffffffffffffffffffffffffffffff1673ffffffffffffffffffffffffffffffffffffffff16815260200190815260200160002060009054906101000a900460ff16905092915050565b60007f01ffc9a7000000000000000000000000000000000000000000000000000000007bffffffffffffffffffffffffffffffffffffffffffffffffffffffff1916827bffffffffffffffffffffffffffffffffffffffffffffffffffffffff1916149050919050565b6117dc81612095565b61181b576040517f08c379a0000000000000000000000000000000000000000000000000000000008152600401611812906138d1565b60405180910390fd5b50565b600033905090565b816005600083815260200190815260200160002060006101000a81548173ffffffffffffffffffffffffffffffffffffffff021916908373ffffffffffffffffffffffffffffffffffffffff160217905550808273ffffffffffffffffffffffffffffffffffffffff1661189983610ffd565b73ffffffffffffffffffffffffffffffffffffffff167f8c5be1e5ebec7d5bd14f71427d1e84f3dd0314c0f7b2291e5b200ac8c7c3b92560405160405180910390a45050565b6000806118eb83610ffd565b90508073ffffffffffffffffffffffffffffffffffffffff168473ffffffffffffffffffffffffffffffffffffffff16148061192d575061192c81856116d5565b5b8061196b57508373ffffffffffffffffffffffffffffffffffffffff16611953846105f1565b73ffffffffffffffffffffffffffffffffffffffff16145b91505092915050565b8273ffffffffffffffffffffffffffffffffffffffff1661199482610ffd565b73ffffffffffffffffffffffffffffffffffffffff16146119ea576040517f08c379a00000000000000000000000000000000000000000000000000000000081526004016119e190613b2d565b60405180910390fd5b600073ffffffffffffffffffffffffffffffffffffffff168273ffffffffffffffffffffffffffffffffffffffff1603611a59576040517f08c379a0000000000000000000000000000000000000000000000000000000008152600401611a5090613bbf565b60405180910390fd5b611a6683838360016120d6565b8273ffffffffffffffffffffffffffffffffffffffff16611a8682610ffd565b73ffffffffffffffffffffffffffffffffffffffff1614611adc576040517f08c379a0000000000000000000000000000000000000000000000000000000008152600401611ad390613b2d565b60405180910390fd5b6005600082815260200190815260200160002060006101000a81549073ffffffffffffffffffffffffffffffffffffffff02191690556001600460008573ffffffffffffffffffffffffffffffffffffffff1673ffffffffffffffffffffffffffffffffffffffff168152602001908152602001600020600082825403925050819055506001600460008473ffffffffffffffffffffffffffffffffffffffff1673ffffffffffffffffffffffffffffffffffffffff16815260200190815260200160002060008282540192505081905550816003600083815260200190815260200160002060006101000a81548173ffffffffffffffffffffffffffffffffffffffff021916908373ffffffffffffffffffffffffffffffffffffffff160217905550808273ffffffffffffffffffffffffffffffffffffffff168473ffffffffffffffffffffffffffffffffffffffff167fddf252ad1be2c89b69c2b068fc378daa952ba7f163c4a11628f55a4df523b3ef60405160405180910390a4611c6883838360016120dc565b505050565b600081600001549050919050565b600260005403611cc0576040517f08c379a0000000000000000000000000000000000000000000000000000000008152600401611cb790613c2b565b60405180910390fd5b6002600081905550565b6001816000016000828254019250508190555050565b611cfa8282604051806020016040528060008152506120e2565b5050565b611d0782612095565b611d46576040517f08c379a0000000000000000000000000000000000000000000000000000000008152600401611d3d90613cbd565b60405180910390fd5b80600760008481526020019081526020016000209081611d66919061374b565b505050565b611e038282604051602401611d81929190613cdd565b6040516020818303038152906040527f319af333000000000000000000000000000000000000000000000000000000007bffffffffffffffffffffffffffffffffffffffffffffffffffffffff19166020820180517bffffffffffffffffffffffffffffffffffffffffffffffffffffffff838183161783525050505061213d565b5050565b6001600081905550565b60006003600083815260200190815260200160002060009054906101000a900473ffffffffffffffffffffffffffffffffffffffff169050919050565b8173ffffffffffffffffffffffffffffffffffffffff168373ffffffffffffffffffffffffffffffffffffffff1603611ebc576040517f08c379a0000000000000000000000000000000000000000000000000000000008152600401611eb390613d59565b60405180910390fd5b80600660008573ffffffffffffffffffffffffffffffffffffffff1673ffffffffffffffffffffffffffffffffffffffff16815260200190815260200160002060008473ffffffffffffffffffffffffffffffffffffffff1673ffffffffffffffffffffffffffffffffffffffff16815260200190815260200160002060006101000a81548160ff0219169083151502179055508173ffffffffffffffffffffffffffffffffffffffff168373ffffffffffffffffffffffffffffffffffffffff167f17307eab39ab6107e8899845ad3d59bd9653f200f220920489ca2b5937696c3183604051611fad919061286b565b60405180910390a3505050565b611fc5848484611974565b611fd184848484612166565b612010576040517f08c379a000000000000000000000000000000000000000000000000000000000815260040161200790613deb565b60405180910390fd5b50505050565b606060405180602001604052806000815250905090565b6060612038826117d3565b6000612042612016565b90506000815111612062576040518060200160405280600081525061208d565b8061206c846122ed565b60405160200161207d929190613a97565b6040516020818303038152906040525b915050919050565b60008073ffffffffffffffffffffffffffffffffffffffff166120b783611e11565b73ffffffffffffffffffffffffffffffffffffffff1614159050919050565b50505050565b50505050565b6120ec83836123bb565b6120f96000848484612166565b612138576040517f08c379a000000000000000000000000000000000000000000000000000000000815260040161212f90613deb565b60405180910390fd5b505050565b60008151905060006a636f6e736f6c652e6c6f679050602083016000808483855afa5050505050565b60006121878473ffffffffffffffffffffffffffffffffffffffff166125d8565b156122e0578373ffffffffffffffffffffffffffffffffffffffff1663150b7a026121b061181e565b8786866040518563ffffffff1660e01b81526004016121d29493929190613e60565b6020604051808303816000875af192505050801561220e57506040513d601f19601f8201168201806040525081019061220b9190613ec1565b60015b612290573d806000811461223e576040519150601f19603f3d011682016040523d82523d6000602084013e612243565b606091505b506000815103612288576040517f08c379a000000000000000000000000000000000000000000000000000000000815260040161227f90613deb565b60405180910390fd5b805181602001fd5b63150b7a0260e01b7bffffffffffffffffffffffffffffffffffffffffffffffffffffffff1916817bffffffffffffffffffffffffffffffffffffffffffffffffffffffff1916149150506122e5565b600190505b949350505050565b6060600060016122fc846125fb565b01905060008167ffffffffffffffff81111561231b5761231a612f11565b5b6040519080825280601f01601f19166020018201604052801561234d5781602001600182028036833780820191505090505b509050600082602001820190505b6001156123b0578080600190039150507f3031323334353637383961626364656600000000000000000000000000000000600a86061a8153600a85816123a4576123a3613eee565b5b0494506000850361235b575b819350505050919050565b600073ffffffffffffffffffffffffffffffffffffffff168273ffffffffffffffffffffffffffffffffffffffff160361242a576040517f08c379a000000000000000000000000000000000000000000000000000000000815260040161242190613f69565b60405180910390fd5b61243381612095565b15612473576040517f08c379a000000000000000000000000000000000000000000000000000000000815260040161246a90613fd5565b60405180910390fd5b6124816000838360016120d6565b61248a81612095565b156124ca576040517f08c379a00000000000000000000000000000000000000000000000000000000081526004016124c190613fd5565b60405180910390fd5b6001600460008473ffffffffffffffffffffffffffffffffffffffff1673ffffffffffffffffffffffffffffffffffffffff16815260200190815260200160002060008282540192505081905550816003600083815260200190815260200160002060006101000a81548173ffffffffffffffffffffffffffffffffffffffff021916908373ffffffffffffffffffffffffffffffffffffffff160217905550808273ffffffffffffffffffffffffffffffffffffffff16600073ffffffffffffffffffffffffffffffffffffffff167fddf252ad1be2c89b69c2b068fc378daa952ba7f163c4a11628f55a4df523b3ef60405160405180910390a46125d46000838360016120dc565b5050565b6000808273ffffffffffffffffffffffffffffffffffffffff163b119050919050565b600080600090507a184f03e93ff9f4daa797ed6e38ed64bf6a1f0100000000000000008310612659577a184f03e93ff9f4daa797ed6e38ed64bf6a1f010000000000000000838161264f5761264e613eee565b5b0492506040810190505b6d04ee2d6d415b85acef81000000008310612696576d04ee2d6d415b85acef8100000000838161268c5761268b613eee565b5b0492506020810190505b662386f26fc1000083106126c557662386f26fc1000083816126bb576126ba613eee565b5b0492506010810190505b6305f5e10083106126ee576305f5e10083816126e4576126e3613eee565b5b0492506008810190505b612710831061271357612710838161270957612708613eee565b5b0492506004810190505b60648310612736576064838161272c5761272b613eee565b5b0492506002810190505b600a8310612745576001810190505b80915050919050565b6040518060e0016040528060008152602001600073ffffffffffffffffffffffffffffffffffffffff168152602001600073ffffffffffffffffffffffffffffffffffffffff168152602001600081526020016060815260200160608152602001606081525090565b6000604051905090565b600080fd5b600080fd5b60007fffffffff0000000000000000000000000000000000000000000000000000000082169050919050565b612800816127cb565b811461280b57600080fd5b50565b60008135905061281d816127f7565b92915050565b600060208284031215612839576128386127c1565b5b60006128478482850161280e565b91505092915050565b60008115159050919050565b61286581612850565b82525050565b6000602082019050612880600083018461285c565b92915050565b600081519050919050565b600082825260208201905092915050565b60005b838110156128c05780820151818401526020810190506128a5565b60008484015250505050565b6000601f19601f8301169050919050565b60006128e882612886565b6128f28185612891565b93506129028185602086016128a2565b61290b816128cc565b840191505092915050565b6000602082019050818103600083015261293081846128dd565b905092915050565b6000819050919050565b61294b81612938565b811461295657600080fd5b50565b60008135905061296881612942565b92915050565b600060208284031215612984576129836127c1565b5b600061299284828501612959565b91505092915050565b600073ffffffffffffffffffffffffffffffffffffffff82169050919050565b60006129c68261299b565b9050919050565b6129d6816129bb565b82525050565b60006020820190506129f160008301846129cd565b92915050565b612a00816129bb565b8114612a0b57600080fd5b50565b600081359050612a1d816129f7565b92915050565b60008060408385031215612a3a57612a396127c1565b5b6000612a4885828601612a0e565b9250506020612a5985828601612959565b9150509250929050565b612a6c81612938565b82525050565b6000602082019050612a876000830184612a63565b92915050565b600080600060608486031215612aa657612aa56127c1565b5b6000612ab486828701612a0e565b9350506020612ac586828701612a0e565b9250506040612ad686828701612959565b9150509250925092565b600081519050919050565b600082825260208201905092915050565b6000819050602082019050919050565b612b1581612938565b82525050565b612b24816129bb565b82525050565b600082825260208201905092915050565b6000612b4682612886565b612b508185612b2a565b9350612b608185602086016128a2565b612b69816128cc565b840191505092915050565b600060e083016000830151612b8c6000860182612b0c565b506020830151612b9f6020860182612b1b565b506040830151612bb26040860182612b1b565b506060830151612bc56060860182612b0c565b5060808301518482036080860152612bdd8282612b3b565b91505060a083015184820360a0860152612bf78282612b3b565b91505060c083015184820360c0860152612c118282612b3b565b9150508091505092915050565b6000612c2a8383612b74565b905092915050565b6000602082019050919050565b6000612c4a82612ae0565b612c548185612aeb565b935083602082028501612c6685612afc565b8060005b85811015612ca25784840389528151612c838582612c1e565b9450612c8e83612c32565b925060208a01995050600181019050612c6a565b50829750879550505050505092915050565b60006020820190508181036000830152612cce8184612c3f565b905092915050565b600080fd5b600080fd5b600080fd5b60008083601f840112612cfb57612cfa612cd6565b5b8235905067ffffffffffffffff811115612d1857612d17612cdb565b5b602083019150836001820283011115612d3457612d33612ce0565b5b9250929050565b60008060008060008060608789031215612d5857612d576127c1565b5b600087013567ffffffffffffffff811115612d7657612d756127c6565b5b612d8289828a01612ce5565b9650965050602087013567ffffffffffffffff811115612da557612da46127c6565b5b612db189828a01612ce5565b9450945050604087013567ffffffffffffffff811115612dd457612dd36127c6565b5b612de089828a01612ce5565b92509250509295509295509295565b600060208284031215612e0557612e046127c1565b5b6000612e1384828501612a0e565b91505092915050565b612e2581612850565b8114612e3057600080fd5b50565b600081359050612e4281612e1c565b92915050565b60008060408385031215612e5f57612e5e6127c1565b5b6000612e6d85828601612a0e565b9250506020612e7e85828601612e33565b9150509250929050565b600060e082019050612e9d600083018a612a63565b612eaa60208301896129cd565b612eb760408301886129cd565b612ec46060830187612a63565b8181036080830152612ed681866128dd565b905081810360a0830152612eea81856128dd565b905081810360c0830152612efe81846128dd565b905098975050505050505050565b600080fd5b7f4e487b7100000000000000000000000000000000000000000000000000000000600052604160045260246000fd5b612f49826128cc565b810181811067ffffffffffffffff82111715612f6857612f67612f11565b5b80604052505050565b6000612f7b6127b7565b9050612f878282612f40565b919050565b600067ffffffffffffffff821115612fa757612fa6612f11565b5b612fb0826128cc565b9050602081019050919050565b82818337600083830152505050565b6000612fdf612fda84612f8c565b612f71565b905082815260208101848484011115612ffb57612ffa612f0c565b5b613006848285612fbd565b509392505050565b600082601f83011261302357613022612cd6565b5b8135613033848260208601612fcc565b91505092915050565b60008060008060808587031215613056576130556127c1565b5b600061306487828801612a0e565b945050602061307587828801612a0e565b935050604061308687828801612959565b925050606085013567ffffffffffffffff8111156130a7576130a66127c6565b5b6130b38782880161300e565b91505092959194509250565b600080604083850312156130d6576130d56127c1565b5b60006130e485828601612a0e565b92505060206130f585828601612a0e565b9150509250929050565b7f4e487b7100000000000000000000000000000000000000000000000000000000600052602260045260246000fd5b6000600282049050600182168061314657607f821691505b602082108103613159576131586130ff565b5b50919050565b7f4552433732313a20617070726f76616c20746f2063757272656e74206f776e6560008201527f7200000000000000000000000000000000000000000000000000000000000000602082015250565b60006131bb602183612891565b91506131c68261315f565b604082019050919050565b600060208201905081810360008301526131ea816131ae565b9050919050565b7f4552433732313a20617070726f76652063616c6c6572206973206e6f7420746f60008201527f6b656e206f776e6572206f7220617070726f76656420666f7220616c6c000000602082015250565b600061324d603d83612891565b9150613258826131f1565b604082019050919050565b6000602082019050818103600083015261327c81613240565b9050919050565b7f4552433732313a2063616c6c6572206973206e6f7420746f6b656e206f776e6560008201527f72206f7220617070726f76656400000000000000000000000000000000000000602082015250565b60006132df602d83612891565b91506132ea82613283565b604082019050919050565b6000602082019050818103600083015261330e816132d2565b9050919050565b7f4e487b7100000000000000000000000000000000000000000000000000000000600052601160045260246000fd5b600061334f82612938565b915061335a83612938565b925082820390508181111561337257613371613315565b5b92915050565b7f4e487b7100000000000000000000000000000000000000000000000000000000600052603260045260246000fd5b60006133b282612938565b91507fffffffffffffffffffffffffffffffffffffffffffffffffffffffffffffffff82036133e4576133e3613315565b5b600182019050919050565b7f4c697374696e67207072696365206e6f74206d65740000000000000000000000600082015250565b6000613425601583612891565b9150613430826133ef565b602082019050919050565b6000602082019050818103600083015261345481613418565b9050919050565b7f456d707479206e616d6500000000000000000000000000000000000000000000600082015250565b6000613491600a83612891565b915061349c8261345b565b602082019050919050565b600060208201905081810360008301526134c081613484565b9050919050565b7f456d707479206465736372697074696f6e000000000000000000000000000000600082015250565b60006134fd601183612891565b9150613508826134c7565b602082019050919050565b6000602082019050818103600083015261352c816134f0565b9050919050565b7f456d70747920746f6b656e205552490000000000000000000000000000000000600082015250565b6000613569600f83612891565b915061357482613533565b602082019050919050565b600060208201905081810360008301526135988161355c565b9050919050565b60008190508160005260206000209050919050565b60006020601f8301049050919050565b600082821b905092915050565b6000600883026136017fffffffffffffffffffffffffffffffffffffffffffffffffffffffffffffffff826135c4565b61360b86836135c4565b95508019841693508086168417925050509392505050565b6000819050919050565b600061364861364361363e84612938565b613623565b612938565b9050919050565b6000819050919050565b6136628361362d565b61367661366e8261364f565b8484546135d1565b825550505050565b600090565b61368b61367e565b613696818484613659565b505050565b5b818110156136ba576136af600082613683565b60018101905061369c565b5050565b601f8211156136ff576136d08161359f565b6136d9846135b4565b810160208510156136e8578190505b6136fc6136f4856135b4565b83018261369b565b50505b505050565b600082821c905092915050565b600061372260001984600802613704565b1980831691505092915050565b600061373b8383613711565b9150826002028217905092915050565b61375482612886565b67ffffffffffffffff81111561376d5761376c612f11565b5b613777825461312e565b6137828282856136be565b600060209050601f8311600181146137b557600084156137a3578287015190505b6137ad858261372f565b865550613815565b601f1984166137c38661359f565b60005b828110156137eb578489015182556001820191506020850194506020810190506137c6565b868310156138085784890151613804601f891682613711565b8355505b6001600288020188555050505b505050505050565b60006138298385612891565b9350613836838584612fbd565b61383f836128cc565b840190509392505050565b6000604082019050818103600083015261386581868861381d565b9050818103602083015261387a81848661381d565b905095945050505050565b7f4552433732313a20696e76616c696420746f6b656e2049440000000000000000600082015250565b60006138bb601883612891565b91506138c682613885565b602082019050919050565b600060208201905081810360008301526138ea816138ae565b9050919050565b7f4552433732313a2061646472657373207a65726f206973206e6f74206120766160008201527f6c6964206f776e65720000000000000000000000000000000000000000000000602082015250565b600061394d602983612891565b9150613958826138f1565b604082019050919050565b6000602082019050818103600083015261397c81613940565b9050919050565b7f4f6e6c79206f776e65722063616e20736574206c697374696e67207072696365600082015250565b60006139b9602083612891565b91506139c482613983565b602082019050919050565b600060208201905081810360008301526139e8816139ac565b9050919050565b7f4974656d20646f6573206e6f7420657869737400000000000000000000000000600082015250565b6000613a25601383612891565b9150613a30826139ef565b602082019050919050565b60006020820190508181036000830152613a5481613a18565b9050919050565b600081905092915050565b6000613a7182612886565b613a7b8185613a5b565b9350613a8b8185602086016128a2565b80840191505092915050565b6000613aa38285613a66565b9150613aaf8284613a66565b91508190509392505050565b7f4552433732313a207472616e736665722066726f6d20696e636f72726563742060008201527f6f776e6572000000000000000000000000000000000000000000000000000000602082015250565b6000613b17602583612891565b9150613b2282613abb565b604082019050919050565b60006020820190508181036000830152613b4681613b0a565b9050919050565b7f4552433732313a207472616e7366657220746f20746865207a65726f2061646460008201527f7265737300000000000000000000000000000000000000000000000000000000602082015250565b6000613ba9602483612891565b9150613bb482613b4d565b604082019050919050565b60006020820190508181036000830152613bd881613b9c565b9050919050565b7f5265656e7472616e637947756172643a207265656e7472616e742063616c6c00600082015250565b6000613c15601f83612891565b9150613c2082613bdf565b602082019050919050565b60006020820190508181036000830152613c4481613c08565b9050919050565b7f45524337323155524953746f726167653a2055524920736574206f66206e6f6e60008201527f6578697374656e7420746f6b656e000000000000000000000000000000000000602082015250565b6000613ca7602e83612891565b9150613cb282613c4b565b604082019050919050565b60006020820190508181036000830152613cd681613c9a565b9050919050565b60006040820190508181036000830152613cf781856128dd565b9050613d0660208301846129cd565b9392505050565b7f4552433732313a20617070726f766520746f2063616c6c657200000000000000600082015250565b6000613d43601983612891565b9150613d4e82613d0d565b602082019050919050565b60006020820190508181036000830152613d7281613d36565b9050919050565b7f4552433732313a207472616e7366657220746f206e6f6e20455243373231526560008201527f63656976657220696d706c656d656e7465720000000000000000000000000000602082015250565b6000613dd5603283612891565b9150613de082613d79565b604082019050919050565b60006020820190508181036000830152613e0481613dc8565b9050919050565b600081519050919050565b600082825260208201905092915050565b6000613e3282613e0b565b613e3c8185613e16565b9350613e4c8185602086016128a2565b613e55816128cc565b840191505092915050565b6000608082019050613e7560008301876129cd565b613e8260208301866129cd565b613e8f6040830185612a63565b8181036060830152613ea18184613e27565b905095945050505050565b600081519050613ebb816127f7565b92915050565b600060208284031215613ed757613ed66127c1565b5b6000613ee584828501613eac565b91505092915050565b7f4e487b7100000000000000000000000000000000000000000000000000000000600052601260045260246000fd5b7f4552433732313a206d696e7420746f20746865207a65726f2061646472657373600082015250565b6000613f53602083612891565b9150613f5e82613f1d565b602082019050919050565b60006020820190508181036000830152613f8281613f46565b9050919050565b7f4552433732313a20746f6b656e20616c7265616479206d696e74656400000000600082015250565b6000613fbf601c83612891565b9150613fca82613f89565b602082019050919050565b60006020820190508181036000830152613fee81613fb2565b905091905056fea2646970667358221220cf6299b42b6046ff2cbf9df3f8169bc87a26e1f73c59978b87c3c5c9826c487764736f6c63430008120033",
  "linkReferences": {},
  "deployedLinkReferences": {}
}