{
  "_format": "hh-sol-artifact-1",
  "contractName": "NFTHUB",
  "sourceName": "contracts/NFTHUB.sol",
  "abi": [
    {
      "inputs": [],
      "stateMutability": "nonpayable",
      "type": "constructor"
    },
    {
      "anonymous": false,
      "inputs": [
        {
          "indexed": true,
          "internalType": "address",
          "name": "owner",
          "type": "address"
        },
        {
          "indexed": true,
          "internalType": "address",
          "name": "approved",
          "type": "address"
        },
        {
          "indexed": true,
          "internalType": "uint256",
          "name": "tokenId",
          "type": "uint256"
        }
      ],
      "name": "Approval",
      "type": "event"
    },
    {
      "anonymous": false,
      "inputs": [
        {
          "indexed": true,
          "internalType": "address",
          "name": "owner",
          "type": "address"
        },
        {
          "indexed": true,
          "internalType": "address",
          "name": "operator",
          "type": "address"
        },
        {
          "indexed": false,
          "internalType": "bool",
          "name": "approved",
          "type": "bool"
        }
      ],
      "name": "ApprovalForAll",
      "type": "event"
    },
    {
      "anonymous": false,
      "inputs": [
        {
          "indexed": false,
          "internalType": "uint256",
          "name": "id",
          "type": "uint256"
        },
        {
          "indexed": false,
          "internalType": "string",
          "name": "name",
          "type": "string"
        },
        {
          "indexed": false,
          "internalType": "uint256",
          "name": "price",
          "type": "uint256"
        },
        {
          "indexed": false,
          "internalType": "string",
          "name": "tokenURI",
          "type": "string"
        }
      ],
      "name": "ItemListed",
      "type": "event"
    },
    {
      "anonymous": false,
      "inputs": [
        {
          "indexed": false,
          "internalType": "uint256",
          "name": "id",
          "type": "uint256"
        },
        {
          "indexed": false,
          "internalType": "address",
          "name": "buyer",
          "type": "address"
        }
      ],
      "name": "ItemSold",
      "type": "event"
    },
    {
      "anonymous": false,
      "inputs": [
        {
          "indexed": true,
          "internalType": "address",
          "name": "from",
          "type": "address"
        },
        {
          "indexed": true,
          "internalType": "address",
          "name": "to",
          "type": "address"
        },
        {
          "indexed": true,
          "internalType": "uint256",
          "name": "tokenId",
          "type": "uint256"
        }
      ],
      "name": "Transfer",
      "type": "event"
    },
    {
      "inputs": [
        {
          "internalType": "address",
          "name": "to",
          "type": "address"
        },
        {
          "internalType": "uint256",
          "name": "tokenId",
          "type": "uint256"
        }
      ],
      "name": "approve",
      "outputs": [],
      "stateMutability": "nonpayable",
      "type": "function"
    },
    {
      "inputs": [
        {
          "internalType": "address",
          "name": "owner",
          "type": "address"
        }
      ],
      "name": "balanceOf",
      "outputs": [
        {
          "internalType": "uint256",
          "name": "",
          "type": "uint256"
        }
      ],
      "stateMutability": "view",
      "type": "function"
    },
    {
      "inputs": [
        {
          "internalType": "uint256",
          "name": "itemId",
          "type": "uint256"
        }
      ],
      "name": "buyNFT",
      "outputs": [],
      "stateMutability": "payable",
      "type": "function"
    },
    {
      "inputs": [
        {
          "internalType": "uint256",
          "name": "itemId",
          "type": "uint256"
        }
      ],
      "name": "fetchItem",
      "outputs": [
        {
          "internalType": "uint256",
          "name": "",
          "type": "uint256"
        },
        {
          "internalType": "address",
          "name": "",
          "type": "address"
        },
        {
          "internalType": "address",
          "name": "",
          "type": "address"
        },
        {
          "internalType": "uint256",
          "name": "",
          "type": "uint256"
        },
        {
          "internalType": "uint256",
          "name": "",
          "type": "uint256"
        },
        {
          "internalType": "string",
          "name": "",
          "type": "string"
        },
        {
          "internalType": "string",
          "name": "",
          "type": "string"
        },
        {
          "internalType": "string",
          "name": "",
          "type": "string"
        },
        {
          "internalType": "bool",
          "name": "",
          "type": "bool"
        }
      ],
      "stateMutability": "view",
      "type": "function"
    },
    {
      "inputs": [
        {
          "internalType": "uint256",
          "name": "tokenId",
          "type": "uint256"
        }
      ],
      "name": "getApproved",
      "outputs": [
        {
          "internalType": "address",
          "name": "",
          "type": "address"
        }
      ],
      "stateMutability": "view",
      "type": "function"
    },
    {
      "inputs": [],
      "name": "getListingPrice",
      "outputs": [
        {
          "internalType": "uint256",
          "name": "",
          "type": "uint256"
        }
      ],
      "stateMutability": "view",
      "type": "function"
    },
    {
      "inputs": [
        {
          "internalType": "address",
          "name": "owner",
          "type": "address"
        },
        {
          "internalType": "address",
          "name": "operator",
          "type": "address"
        }
      ],
      "name": "isApprovedForAll",
      "outputs": [
        {
          "internalType": "bool",
          "name": "",
          "type": "bool"
        }
      ],
      "stateMutability": "view",
      "type": "function"
    },
    {
      "inputs": [
        {
          "internalType": "string",
          "name": "name",
          "type": "string"
        },
        {
          "internalType": "uint256",
          "name": "price",
          "type": "uint256"
        },
        {
          "internalType": "string",
          "name": "description",
          "type": "string"
        },
        {
          "internalType": "string",
          "name": "tokenURI",
          "type": "string"
        }
      ],
      "name": "listNFT",
      "outputs": [],
      "stateMutability": "payable",
      "type": "function"
    },
    {
      "inputs": [],
      "name": "name",
      "outputs": [
        {
          "internalType": "string",
          "name": "",
          "type": "string"
        }
      ],
      "stateMutability": "view",
      "type": "function"
    },
    {
      "inputs": [
        {
          "internalType": "uint256",
          "name": "tokenId",
          "type": "uint256"
        }
      ],
      "name": "ownerOf",
      "outputs": [
        {
          "internalType": "address",
          "name": "",
          "type": "address"
        }
      ],
      "stateMutability": "view",
      "type": "function"
    },
    {
      "inputs": [
        {
          "internalType": "address",
          "name": "from",
          "type": "address"
        },
        {
          "internalType": "address",
          "name": "to",
          "type": "address"
        },
        {
          "internalType": "uint256",
          "name": "tokenId",
          "type": "uint256"
        }
      ],
      "name": "safeTransferFrom",
      "outputs": [],
      "stateMutability": "nonpayable",
      "type": "function"
    },
    {
      "inputs": [
        {
          "internalType": "address",
          "name": "from",
          "type": "address"
        },
        {
          "internalType": "address",
          "name": "to",
          "type": "address"
        },
        {
          "internalType": "uint256",
          "name": "tokenId",
          "type": "uint256"
        },
        {
          "internalType": "bytes",
          "name": "data",
          "type": "bytes"
        }
      ],
      "name": "safeTransferFrom",
      "outputs": [],
      "stateMutability": "nonpayable",
      "type": "function"
    },
    {
      "inputs": [
        {
          "internalType": "address",
          "name": "operator",
          "type": "address"
        },
        {
          "internalType": "bool",
          "name": "approved",
          "type": "bool"
        }
      ],
      "name": "setApprovalForAll",
      "outputs": [],
      "stateMutability": "nonpayable",
      "type": "function"
    },
    {
      "inputs": [
        {
          "internalType": "uint256",
          "name": "newPrice",
          "type": "uint256"
        }
      ],
      "name": "setListingPrice",
      "outputs": [],
      "stateMutability": "nonpayable",
      "type": "function"
    },
    {
      "inputs": [
        {
          "internalType": "bytes4",
          "name": "interfaceId",
          "type": "bytes4"
        }
      ],
      "name": "supportsInterface",
      "outputs": [
        {
          "internalType": "bool",
          "name": "",
          "type": "bool"
        }
      ],
      "stateMutability": "view",
      "type": "function"
    },
    {
      "inputs": [],
      "name": "symbol",
      "outputs": [
        {
          "internalType": "string",
          "name": "",
          "type": "string"
        }
      ],
      "stateMutability": "view",
      "type": "function"
    },
    {
      "inputs": [
        {
          "internalType": "uint256",
          "name": "tokenId",
          "type": "uint256"
        }
      ],
      "name": "tokenURI",
      "outputs": [
        {
          "internalType": "string",
          "name": "",
          "type": "string"
        }
      ],
      "stateMutability": "view",
      "type": "function"
    },
    {
      "inputs": [
        {
          "internalType": "address",
          "name": "from",
          "type": "address"
        },
        {
          "internalType": "address",
          "name": "to",
          "type": "address"
        },
        {
          "internalType": "uint256",
          "name": "tokenId",
          "type": "uint256"
        }
      ],
      "name": "transferFrom",
      "outputs": [],
      "stateMutability": "nonpayable",
      "type": "function"
    }
  ],
  "bytecode": "0x60806040526000600b553480156200001657600080fd5b506040518060400160405280600681526020017f4e465448554200000000000000000000000000000000000000000000000000008152506040518060400160405280600481526020017f4e46544800000000000000000000000000000000000000000000000000000000815250600160008190555081600190816200009c919062000372565b508060029081620000ae919062000372565b50505033600a60006101000a81548173ffffffffffffffffffffffffffffffffffffffff021916908373ffffffffffffffffffffffffffffffffffffffff16021790555062000459565b600081519050919050565b7f4e487b7100000000000000000000000000000000000000000000000000000000600052604160045260246000fd5b7f4e487b7100000000000000000000000000000000000000000000000000000000600052602260045260246000fd5b600060028204905060018216806200017a57607f821691505b60208210810362000190576200018f62000132565b5b50919050565b60008190508160005260206000209050919050565b60006020601f8301049050919050565b600082821b905092915050565b600060088302620001fa7fffffffffffffffffffffffffffffffffffffffffffffffffffffffffffffffff82620001bb565b620002068683620001bb565b95508019841693508086168417925050509392505050565b6000819050919050565b6000819050919050565b6000620002536200024d62000247846200021e565b62000228565b6200021e565b9050919050565b6000819050919050565b6200026f8362000232565b620002876200027e826200025a565b848454620001c8565b825550505050565b600090565b6200029e6200028f565b620002ab81848462000264565b505050565b5b81811015620002d357620002c760008262000294565b600181019050620002b1565b5050565b601f8211156200032257620002ec8162000196565b620002f784620001ab565b8101602085101562000307578190505b6200031f6200031685620001ab565b830182620002b0565b50505b505050565b600082821c905092915050565b6000620003476000198460080262000327565b1980831691505092915050565b600062000362838362000334565b9150826002028217905092915050565b6200037d82620000f8565b67ffffffffffffffff81111562000399576200039862000103565b5b620003a5825462000161565b620003b2828285620002d7565b600060209050601f831160018114620003ea5760008415620003d5578287015190505b620003e1858262000354565b86555062000451565b601f198416620003fa8662000196565b60005b828110156200042457848901518255600182019150602085019450602081019050620003fd565b8683101562000444578489015162000440601f89168262000334565b8355505b6001600288020188555050505b505050505050565b61370e80620004696000396000f3fe6080604052600436106101095760003560e01c80636352211e11610095578063a22cb46511610064578063a22cb4651461035f578063ad4b9cfb14610388578063b88d4fde146103cd578063c87b56dd146103f6578063e985e9c51461043357610109565b80636352211e1461029157806370a08231146102ce5780637c726b691461030b57806395d89b411461033457610109565b806312e85585116100dc57806312e85585146101dc57806323b872dd146102075780632cdea69d1461023057806342842e0e1461024c57806351ed82881461027557610109565b806301ffc9a71461010e57806306fdde031461014b578063081812fc14610176578063095ea7b3146101b3575b600080fd5b34801561011a57600080fd5b5061013560048036038101906101309190612264565b610470565b60405161014291906122ac565b60405180910390f35b34801561015757600080fd5b50610160610552565b60405161016d9190612357565b60405180910390f35b34801561018257600080fd5b5061019d600480360381019061019891906123af565b6105e4565b6040516101aa919061241d565b60405180910390f35b3480156101bf57600080fd5b506101da60048036038101906101d59190612464565b61062a565b005b3480156101e857600080fd5b506101f1610741565b6040516101fe91906124b3565b60405180910390f35b34801561021357600080fd5b5061022e600480360381019061022991906124ce565b61074b565b005b61024a60048036038101906102459190612656565b6107ab565b005b34801561025857600080fd5b50610273600480360381019061026e91906124ce565b610a23565b005b61028f600480360381019061028a91906123af565b610a43565b005b34801561029d57600080fd5b506102b860048036038101906102b391906123af565b610c6a565b6040516102c5919061241d565b60405180910390f35b3480156102da57600080fd5b506102f560048036038101906102f09190612711565b610cf0565b60405161030291906124b3565b60405180910390f35b34801561031757600080fd5b50610332600480360381019061032d91906123af565b610da7565b005b34801561034057600080fd5b50610349610e41565b6040516103569190612357565b60405180910390f35b34801561036b57600080fd5b506103866004803603810190610381919061276a565b610ed3565b005b34801561039457600080fd5b506103af60048036038101906103aa91906123af565b610ee9565b6040516103c4999897969594939291906127aa565b60405180910390f35b3480156103d957600080fd5b506103f460048036038101906103ef91906128ed565b611149565b005b34801561040257600080fd5b5061041d600480360381019061041891906123af565b6111ab565b60405161042a9190612357565b60405180910390f35b34801561043f57600080fd5b5061045a60048036038101906104559190612970565b6112bd565b60405161046791906122ac565b60405180910390f35b60007f80ac58cd000000000000000000000000000000000000000000000000000000007bffffffffffffffffffffffffffffffffffffffffffffffffffffffff1916827bffffffffffffffffffffffffffffffffffffffffffffffffffffffff1916148061053b57507f5b5e139f000000000000000000000000000000000000000000000000000000007bffffffffffffffffffffffffffffffffffffffffffffffffffffffff1916827bffffffffffffffffffffffffffffffffffffffffffffffffffffffff1916145b8061054b575061054a82611351565b5b9050919050565b606060018054610561906129df565b80601f016020809104026020016040519081016040528092919081815260200182805461058d906129df565b80156105da5780601f106105af576101008083540402835291602001916105da565b820191906000526020600020905b8154815290600101906020018083116105bd57829003601f168201915b5050505050905090565b60006105ef826113bb565b6005600083815260200190815260200160002060009054906101000a900473ffffffffffffffffffffffffffffffffffffffff169050919050565b600061063582610c6a565b90508073ffffffffffffffffffffffffffffffffffffffff168373ffffffffffffffffffffffffffffffffffffffff16036106a5576040517f08c379a000000000000000000000000000000000000000000000000000000000815260040161069c90612a82565b60405180910390fd5b8073ffffffffffffffffffffffffffffffffffffffff166106c4611406565b73ffffffffffffffffffffffffffffffffffffffff1614806106f357506106f2816106ed611406565b6112bd565b5b610732576040517f08c379a000000000000000000000000000000000000000000000000000000000815260040161072990612b14565b60405180910390fd5b61073c838361140e565b505050565b6000600b54905090565b61075c610756611406565b826114c7565b61079b576040517f08c379a000000000000000000000000000000000000000000000000000000000815260040161079290612ba6565b60405180910390fd5b6107a683838361155c565b505050565b6107b3611855565b600b543410156107f8576040517f08c379a00000000000000000000000000000000000000000000000000000000081526004016107ef90612c12565b60405180910390fd5b61080260086118a4565b600061080e60086118ba565b905061081a33826118c8565b6108248183611ae5565b61082e60096118a4565b600061083a60096118ba565b905060006040518061012001604052808381526020013373ffffffffffffffffffffffffffffffffffffffff1681526020013073ffffffffffffffffffffffffffffffffffffffff16815260200184815260200187815260200188815260200186815260200185815260200160001515815250905080600c60008481526020019081526020016000206000820151816000015560208201518160010160006101000a81548173ffffffffffffffffffffffffffffffffffffffff021916908373ffffffffffffffffffffffffffffffffffffffff16021790555060408201518160020160006101000a81548173ffffffffffffffffffffffffffffffffffffffff021916908373ffffffffffffffffffffffffffffffffffffffff160217905550606082015181600301556080820151816004015560a08201518160050190816109849190612dde565b5060c082015181600601908161099a9190612dde565b5060e08201518160070190816109b09190612dde565b506101008201518160080160006101000a81548160ff0219169083151502179055509050507fc838f30398c32a103f73407508588283e5369ba19e0b16d9b1e8a468f9c8632682888887604051610a0a9493929190612eb0565b60405180910390a1505050610a1d611b52565b50505050565b610a3e83838360405180602001604052806000815250611149565b505050565b610a4b611855565b6000600c600083815260200190815260200160002090508060040154341015610aa9576040517f08c379a0000000000000000000000000000000000000000000000000000000008152600401610aa090612f4f565b60405180910390fd5b8060080160009054906101000a900460ff1615610afb576040517f08c379a0000000000000000000000000000000000000000000000000000000008152600401610af290612fbb565b60405180910390fd5b60018160080160006101000a81548160ff0219169083151502179055508060010160009054906101000a900473ffffffffffffffffffffffffffffffffffffffff1673ffffffffffffffffffffffffffffffffffffffff166108fc82600401549081150290604051600060405180830381858888f19350505050158015610b86573d6000803e3d6000fd5b50600a60009054906101000a900473ffffffffffffffffffffffffffffffffffffffff1673ffffffffffffffffffffffffffffffffffffffff166108fc600b549081150290604051600060405180830381858888f19350505050158015610bf1573d6000803e3d6000fd5b50610c258160010160009054906101000a900473ffffffffffffffffffffffffffffffffffffffff1633836003015461155c565b7f7de4035ced290be6d7724645d43bad448b5d8cc76743ff4da172c2d8e1caa0f58233604051610c56929190612fdb565b60405180910390a150610c67611b52565b50565b600080610c7683611b5c565b9050600073ffffffffffffffffffffffffffffffffffffffff168173ffffffffffffffffffffffffffffffffffffffff1603610ce7576040517f08c379a0000000000000000000000000000000000000000000000000000000008152600401610cde90613050565b60405180910390fd5b80915050919050565b60008073ffffffffffffffffffffffffffffffffffffffff168273ffffffffffffffffffffffffffffffffffffffff1603610d60576040517f08c379a0000000000000000000000000000000000000000000000000000000008152600401610d57906130e2565b60405180910390fd5b600460008373ffffffffffffffffffffffffffffffffffffffff1673ffffffffffffffffffffffffffffffffffffffff168152602001908152602001600020549050919050565b600a60009054906101000a900473ffffffffffffffffffffffffffffffffffffffff1673ffffffffffffffffffffffffffffffffffffffff163373ffffffffffffffffffffffffffffffffffffffff1614610e37576040517f08c379a0000000000000000000000000000000000000000000000000000000008152600401610e2e9061314e565b60405180910390fd5b80600b8190555050565b606060028054610e50906129df565b80601f0160208091040260200160405190810160405280929190818152602001828054610e7c906129df565b8015610ec95780601f10610e9e57610100808354040283529160200191610ec9565b820191906000526020600020905b815481529060010190602001808311610eac57829003601f168201915b5050505050905090565b610ee5610ede611406565b8383611b99565b5050565b60008060008060006060806060600080600c60008c8152602001908152602001600020905080600001548160010160009054906101000a900473ffffffffffffffffffffffffffffffffffffffff168260020160009054906101000a900473ffffffffffffffffffffffffffffffffffffffff16836003015484600401548560050186600601876007018860080160009054906101000a900460ff16838054610f91906129df565b80601f0160208091040260200160405190810160405280929190818152602001828054610fbd906129df565b801561100a5780601f10610fdf5761010080835404028352916020019161100a565b820191906000526020600020905b815481529060010190602001808311610fed57829003601f168201915b5050505050935082805461101d906129df565b80601f0160208091040260200160405190810160405280929190818152602001828054611049906129df565b80156110965780601f1061106b57610100808354040283529160200191611096565b820191906000526020600020905b81548152906001019060200180831161107957829003601f168201915b505050505092508180546110a9906129df565b80601f01602080910402602001604051908101604052809291908181526020018280546110d5906129df565b80156111225780601f106110f757610100808354040283529160200191611122565b820191906000526020600020905b81548152906001019060200180831161110557829003601f168201915b50505050509150995099509950995099509950995099509950509193959799909294969850565b61115a611154611406565b836114c7565b611199576040517f08c379a000000000000000000000000000000000000000000000000000000000815260040161119090612ba6565b60405180910390fd5b6111a584848484611d05565b50505050565b60606111b6826113bb565b60006007600084815260200190815260200160002080546111d6906129df565b80601f0160208091040260200160405190810160405280929190818152602001828054611202906129df565b801561124f5780601f106112245761010080835404028352916020019161124f565b820191906000526020600020905b81548152906001019060200180831161123257829003601f168201915b505050505090506000611260611d61565b905060008151036112755781925050506112b8565b6000825111156112aa5780826040516020016112929291906131aa565b604051602081830303815290604052925050506112b8565b6112b384611d78565b925050505b919050565b6000600660008473ffffffffffffffffffffffffffffffffffffffff1673ffffffffffffffffffffffffffffffffffffffff16815260200190815260200160002060008373ffffffffffffffffffffffffffffffffffffffff1673ffffffffffffffffffffffffffffffffffffffff16815260200190815260200160002060009054906101000a900460ff16905092915050565b60007f01ffc9a7000000000000000000000000000000000000000000000000000000007bffffffffffffffffffffffffffffffffffffffffffffffffffffffff1916827bffffffffffffffffffffffffffffffffffffffffffffffffffffffff1916149050919050565b6113c481611de0565b611403576040517f08c379a00000000000000000000000000000000000000000000000000000000081526004016113fa90613050565b60405180910390fd5b50565b600033905090565b816005600083815260200190815260200160002060006101000a81548173ffffffffffffffffffffffffffffffffffffffff021916908373ffffffffffffffffffffffffffffffffffffffff160217905550808273ffffffffffffffffffffffffffffffffffffffff1661148183610c6a565b73ffffffffffffffffffffffffffffffffffffffff167f8c5be1e5ebec7d5bd14f71427d1e84f3dd0314c0f7b2291e5b200ac8c7c3b92560405160405180910390a45050565b6000806114d383610c6a565b90508073ffffffffffffffffffffffffffffffffffffffff168473ffffffffffffffffffffffffffffffffffffffff161480611515575061151481856112bd565b5b8061155357508373ffffffffffffffffffffffffffffffffffffffff1661153b846105e4565b73ffffffffffffffffffffffffffffffffffffffff16145b91505092915050565b8273ffffffffffffffffffffffffffffffffffffffff1661157c82610c6a565b73ffffffffffffffffffffffffffffffffffffffff16146115d2576040517f08c379a00000000000000000000000000000000000000000000000000000000081526004016115c990613240565b60405180910390fd5b600073ffffffffffffffffffffffffffffffffffffffff168273ffffffffffffffffffffffffffffffffffffffff1603611641576040517f08c379a0000000000000000000000000000000000000000000000000000000008152600401611638906132d2565b60405180910390fd5b61164e8383836001611e21565b8273ffffffffffffffffffffffffffffffffffffffff1661166e82610c6a565b73ffffffffffffffffffffffffffffffffffffffff16146116c4576040517f08c379a00000000000000000000000000000000000000000000000000000000081526004016116bb90613240565b60405180910390fd5b6005600082815260200190815260200160002060006101000a81549073ffffffffffffffffffffffffffffffffffffffff02191690556001600460008573ffffffffffffffffffffffffffffffffffffffff1673ffffffffffffffffffffffffffffffffffffffff168152602001908152602001600020600082825403925050819055506001600460008473ffffffffffffffffffffffffffffffffffffffff1673ffffffffffffffffffffffffffffffffffffffff16815260200190815260200160002060008282540192505081905550816003600083815260200190815260200160002060006101000a81548173ffffffffffffffffffffffffffffffffffffffff021916908373ffffffffffffffffffffffffffffffffffffffff160217905550808273ffffffffffffffffffffffffffffffffffffffff168473ffffffffffffffffffffffffffffffffffffffff167fddf252ad1be2c89b69c2b068fc378daa952ba7f163c4a11628f55a4df523b3ef60405160405180910390a46118508383836001611e27565b505050565b60026000540361189a576040517f08c379a00000000000000000000000000000000000000000000000000000000081526004016118919061333e565b60405180910390fd5b6002600081905550565b6001816000016000828254019250508190555050565b600081600001549050919050565b600073ffffffffffffffffffffffffffffffffffffffff168273ffffffffffffffffffffffffffffffffffffffff1603611937576040517f08c379a000000000000000000000000000000000000000000000000000000000815260040161192e906133aa565b60405180910390fd5b61194081611de0565b15611980576040517f08c379a000000000000000000000000000000000000000000000000000000000815260040161197790613416565b60405180910390fd5b61198e600083836001611e21565b61199781611de0565b156119d7576040517f08c379a00000000000000000000000000000000000000000000000000000000081526004016119ce90613416565b60405180910390fd5b6001600460008473ffffffffffffffffffffffffffffffffffffffff1673ffffffffffffffffffffffffffffffffffffffff16815260200190815260200160002060008282540192505081905550816003600083815260200190815260200160002060006101000a81548173ffffffffffffffffffffffffffffffffffffffff021916908373ffffffffffffffffffffffffffffffffffffffff160217905550808273ffffffffffffffffffffffffffffffffffffffff16600073ffffffffffffffffffffffffffffffffffffffff167fddf252ad1be2c89b69c2b068fc378daa952ba7f163c4a11628f55a4df523b3ef60405160405180910390a4611ae1600083836001611e27565b5050565b611aee82611de0565b611b2d576040517f08c379a0000000000000000000000000000000000000000000000000000000008152600401611b24906134a8565b60405180910390fd5b80600760008481526020019081526020016000209081611b4d9190612dde565b505050565b6001600081905550565b60006003600083815260200190815260200160002060009054906101000a900473ffffffffffffffffffffffffffffffffffffffff169050919050565b8173ffffffffffffffffffffffffffffffffffffffff168373ffffffffffffffffffffffffffffffffffffffff1603611c07576040517f08c379a0000000000000000000000000000000000000000000000000000000008152600401611bfe90613514565b60405180910390fd5b80600660008573ffffffffffffffffffffffffffffffffffffffff1673ffffffffffffffffffffffffffffffffffffffff16815260200190815260200160002060008473ffffffffffffffffffffffffffffffffffffffff1673ffffffffffffffffffffffffffffffffffffffff16815260200190815260200160002060006101000a81548160ff0219169083151502179055508173ffffffffffffffffffffffffffffffffffffffff168373ffffffffffffffffffffffffffffffffffffffff167f17307eab39ab6107e8899845ad3d59bd9653f200f220920489ca2b5937696c3183604051611cf891906122ac565b60405180910390a3505050565b611d1084848461155c565b611d1c84848484611e2d565b611d5b576040517f08c379a0000000000000000000000000000000000000000000000000000000008152600401611d52906135a6565b60405180910390fd5b50505050565b606060405180602001604052806000815250905090565b6060611d83826113bb565b6000611d8d611d61565b90506000815111611dad5760405180602001604052806000815250611dd8565b80611db784611fb4565b604051602001611dc89291906131aa565b6040516020818303038152906040525b915050919050565b60008073ffffffffffffffffffffffffffffffffffffffff16611e0283611b5c565b73ffffffffffffffffffffffffffffffffffffffff1614159050919050565b50505050565b50505050565b6000611e4e8473ffffffffffffffffffffffffffffffffffffffff16612082565b15611fa7578373ffffffffffffffffffffffffffffffffffffffff1663150b7a02611e77611406565b8786866040518563ffffffff1660e01b8152600401611e99949392919061361b565b6020604051808303816000875af1925050508015611ed557506040513d601f19601f82011682018060405250810190611ed2919061367c565b60015b611f57573d8060008114611f05576040519150601f19603f3d011682016040523d82523d6000602084013e611f0a565b606091505b506000815103611f4f576040517f08c379a0000000000000000000000000000000000000000000000000000000008152600401611f46906135a6565b60405180910390fd5b805181602001fd5b63150b7a0260e01b7bffffffffffffffffffffffffffffffffffffffffffffffffffffffff1916817bffffffffffffffffffffffffffffffffffffffffffffffffffffffff191614915050611fac565b600190505b949350505050565b606060006001611fc3846120a5565b01905060008167ffffffffffffffff811115611fe257611fe161252b565b5b6040519080825280601f01601f1916602001820160405280156120145781602001600182028036833780820191505090505b509050600082602001820190505b600115612077578080600190039150507f3031323334353637383961626364656600000000000000000000000000000000600a86061a8153600a858161206b5761206a6136a9565b5b04945060008503612022575b819350505050919050565b6000808273ffffffffffffffffffffffffffffffffffffffff163b119050919050565b600080600090507a184f03e93ff9f4daa797ed6e38ed64bf6a1f0100000000000000008310612103577a184f03e93ff9f4daa797ed6e38ed64bf6a1f01000000000000000083816120f9576120f86136a9565b5b0492506040810190505b6d04ee2d6d415b85acef81000000008310612140576d04ee2d6d415b85acef81000000008381612136576121356136a9565b5b0492506020810190505b662386f26fc10000831061216f57662386f26fc100008381612165576121646136a9565b5b0492506010810190505b6305f5e1008310612198576305f5e100838161218e5761218d6136a9565b5b0492506008810190505b61271083106121bd5761271083816121b3576121b26136a9565b5b0492506004810190505b606483106121e057606483816121d6576121d56136a9565b5b0492506002810190505b600a83106121ef576001810190505b80915050919050565b6000604051905090565b600080fd5b600080fd5b60007fffffffff0000000000000000000000000000000000000000000000000000000082169050919050565b6122418161220c565b811461224c57600080fd5b50565b60008135905061225e81612238565b92915050565b60006020828403121561227a57612279612202565b5b60006122888482850161224f565b91505092915050565b60008115159050919050565b6122a681612291565b82525050565b60006020820190506122c1600083018461229d565b92915050565b600081519050919050565b600082825260208201905092915050565b60005b838110156123015780820151818401526020810190506122e6565b60008484015250505050565b6000601f19601f8301169050919050565b6000612329826122c7565b61233381856122d2565b93506123438185602086016122e3565b61234c8161230d565b840191505092915050565b60006020820190508181036000830152612371818461231e565b905092915050565b6000819050919050565b61238c81612379565b811461239757600080fd5b50565b6000813590506123a981612383565b92915050565b6000602082840312156123c5576123c4612202565b5b60006123d38482850161239a565b91505092915050565b600073ffffffffffffffffffffffffffffffffffffffff82169050919050565b6000612407826123dc565b9050919050565b612417816123fc565b82525050565b6000602082019050612432600083018461240e565b92915050565b612441816123fc565b811461244c57600080fd5b50565b60008135905061245e81612438565b92915050565b6000806040838503121561247b5761247a612202565b5b60006124898582860161244f565b925050602061249a8582860161239a565b9150509250929050565b6124ad81612379565b82525050565b60006020820190506124c860008301846124a4565b92915050565b6000806000606084860312156124e7576124e6612202565b5b60006124f58682870161244f565b93505060206125068682870161244f565b92505060406125178682870161239a565b9150509250925092565b600080fd5b600080fd5b7f4e487b7100000000000000000000000000000000000000000000000000000000600052604160045260246000fd5b6125638261230d565b810181811067ffffffffffffffff821117156125825761258161252b565b5b80604052505050565b60006125956121f8565b90506125a1828261255a565b919050565b600067ffffffffffffffff8211156125c1576125c061252b565b5b6125ca8261230d565b9050602081019050919050565b82818337600083830152505050565b60006125f96125f4846125a6565b61258b565b90508281526020810184848401111561261557612614612526565b5b6126208482856125d7565b509392505050565b600082601f83011261263d5761263c612521565b5b813561264d8482602086016125e6565b91505092915050565b600080600080608085870312156126705761266f612202565b5b600085013567ffffffffffffffff81111561268e5761268d612207565b5b61269a87828801612628565b94505060206126ab8782880161239a565b935050604085013567ffffffffffffffff8111156126cc576126cb612207565b5b6126d887828801612628565b925050606085013567ffffffffffffffff8111156126f9576126f8612207565b5b61270587828801612628565b91505092959194509250565b60006020828403121561272757612726612202565b5b60006127358482850161244f565b91505092915050565b61274781612291565b811461275257600080fd5b50565b6000813590506127648161273e565b92915050565b6000806040838503121561278157612780612202565b5b600061278f8582860161244f565b92505060206127a085828601612755565b9150509250929050565b6000610120820190506127c0600083018c6124a4565b6127cd602083018b61240e565b6127da604083018a61240e565b6127e760608301896124a4565b6127f460808301886124a4565b81810360a0830152612806818761231e565b905081810360c083015261281a818661231e565b905081810360e083015261282e818561231e565b905061283e61010083018461229d565b9a9950505050505050505050565b600067ffffffffffffffff8211156128675761286661252b565b5b6128708261230d565b9050602081019050919050565b600061289061288b8461284c565b61258b565b9050828152602081018484840111156128ac576128ab612526565b5b6128b78482856125d7565b509392505050565b600082601f8301126128d4576128d3612521565b5b81356128e484826020860161287d565b91505092915050565b6000806000806080858703121561290757612906612202565b5b60006129158782880161244f565b94505060206129268782880161244f565b93505060406129378782880161239a565b925050606085013567ffffffffffffffff81111561295857612957612207565b5b612964878288016128bf565b91505092959194509250565b6000806040838503121561298757612986612202565b5b60006129958582860161244f565b92505060206129a68582860161244f565b9150509250929050565b7f4e487b7100000000000000000000000000000000000000000000000000000000600052602260045260246000fd5b600060028204905060018216806129f757607f821691505b602082108103612a0a57612a096129b0565b5b50919050565b7f4552433732313a20617070726f76616c20746f2063757272656e74206f776e6560008201527f7200000000000000000000000000000000000000000000000000000000000000602082015250565b6000612a6c6021836122d2565b9150612a7782612a10565b604082019050919050565b60006020820190508181036000830152612a9b81612a5f565b9050919050565b7f4552433732313a20617070726f76652063616c6c6572206973206e6f7420746f60008201527f6b656e206f776e6572206f7220617070726f76656420666f7220616c6c000000602082015250565b6000612afe603d836122d2565b9150612b0982612aa2565b604082019050919050565b60006020820190508181036000830152612b2d81612af1565b9050919050565b7f4552433732313a2063616c6c6572206973206e6f7420746f6b656e206f776e6560008201527f72206f7220617070726f76656400000000000000000000000000000000000000602082015250565b6000612b90602d836122d2565b9150612b9b82612b34565b604082019050919050565b60006020820190508181036000830152612bbf81612b83565b9050919050565b7f4c697374696e67207072696365206e6f74206d65740000000000000000000000600082015250565b6000612bfc6015836122d2565b9150612c0782612bc6565b602082019050919050565b60006020820190508181036000830152612c2b81612bef565b9050919050565b60008190508160005260206000209050919050565b60006020601f8301049050919050565b600082821b905092915050565b600060088302612c947fffffffffffffffffffffffffffffffffffffffffffffffffffffffffffffffff82612c57565b612c9e8683612c57565b95508019841693508086168417925050509392505050565b6000819050919050565b6000612cdb612cd6612cd184612379565b612cb6565b612379565b9050919050565b6000819050919050565b612cf583612cc0565b612d09612d0182612ce2565b848454612c64565b825550505050565b600090565b612d1e612d11565b612d29818484612cec565b505050565b5b81811015612d4d57612d42600082612d16565b600181019050612d2f565b5050565b601f821115612d9257612d6381612c32565b612d6c84612c47565b81016020851015612d7b578190505b612d8f612d8785612c47565b830182612d2e565b50505b505050565b600082821c905092915050565b6000612db560001984600802612d97565b1980831691505092915050565b6000612dce8383612da4565b9150826002028217905092915050565b612de7826122c7565b67ffffffffffffffff811115612e0057612dff61252b565b5b612e0a82546129df565b612e15828285612d51565b600060209050601f831160018114612e485760008415612e36578287015190505b612e408582612dc2565b865550612ea8565b601f198416612e5686612c32565b60005b82811015612e7e57848901518255600182019150602085019450602081019050612e59565b86831015612e9b5784890151612e97601f891682612da4565b8355505b6001600288020188555050505b505050505050565b6000608082019050612ec560008301876124a4565b8181036020830152612ed7818661231e565b9050612ee660408301856124a4565b8181036060830152612ef8818461231e565b905095945050505050565b7f5072696365206e6f74206d657400000000000000000000000000000000000000600082015250565b6000612f39600d836122d2565b9150612f4482612f03565b602082019050919050565b60006020820190508181036000830152612f6881612f2c565b9050919050565b7f4974656d20697320616c726561647920736f6c64000000000000000000000000600082015250565b6000612fa56014836122d2565b9150612fb082612f6f565b602082019050919050565b60006020820190508181036000830152612fd481612f98565b9050919050565b6000604082019050612ff060008301856124a4565b612ffd602083018461240e565b9392505050565b7f4552433732313a20696e76616c696420746f6b656e2049440000000000000000600082015250565b600061303a6018836122d2565b915061304582613004565b602082019050919050565b600060208201905081810360008301526130698161302d565b9050919050565b7f4552433732313a2061646472657373207a65726f206973206e6f74206120766160008201527f6c6964206f776e65720000000000000000000000000000000000000000000000602082015250565b60006130cc6029836122d2565b91506130d782613070565b604082019050919050565b600060208201905081810360008301526130fb816130bf565b9050919050565b7f4f6e6c79206f776e65722063616e20736574206c697374696e67207072696365600082015250565b60006131386020836122d2565b915061314382613102565b602082019050919050565b600060208201905081810360008301526131678161312b565b9050919050565b600081905092915050565b6000613184826122c7565b61318e818561316e565b935061319e8185602086016122e3565b80840191505092915050565b60006131b68285613179565b91506131c28284613179565b91508190509392505050565b7f4552433732313a207472616e736665722066726f6d20696e636f72726563742060008201527f6f776e6572000000000000000000000000000000000000000000000000000000602082015250565b600061322a6025836122d2565b9150613235826131ce565b604082019050919050565b600060208201905081810360008301526132598161321d565b9050919050565b7f4552433732313a207472616e7366657220746f20746865207a65726f2061646460008201527f7265737300000000000000000000000000000000000000000000000000000000602082015250565b60006132bc6024836122d2565b91506132c782613260565b604082019050919050565b600060208201905081810360008301526132eb816132af565b9050919050565b7f5265656e7472616e637947756172643a207265656e7472616e742063616c6c00600082015250565b6000613328601f836122d2565b9150613333826132f2565b602082019050919050565b600060208201905081810360008301526133578161331b565b9050919050565b7f4552433732313a206d696e7420746f20746865207a65726f2061646472657373600082015250565b60006133946020836122d2565b915061339f8261335e565b602082019050919050565b600060208201905081810360008301526133c381613387565b9050919050565b7f4552433732313a20746f6b656e20616c7265616479206d696e74656400000000600082015250565b6000613400601c836122d2565b915061340b826133ca565b602082019050919050565b6000602082019050818103600083015261342f816133f3565b9050919050565b7f45524337323155524953746f726167653a2055524920736574206f66206e6f6e60008201527f6578697374656e7420746f6b656e000000000000000000000000000000000000602082015250565b6000613492602e836122d2565b915061349d82613436565b604082019050919050565b600060208201905081810360008301526134c181613485565b9050919050565b7f4552433732313a20617070726f766520746f2063616c6c657200000000000000600082015250565b60006134fe6019836122d2565b9150613509826134c8565b602082019050919050565b6000602082019050818103600083015261352d816134f1565b9050919050565b7f4552433732313a207472616e7366657220746f206e6f6e20455243373231526560008201527f63656976657220696d706c656d656e7465720000000000000000000000000000602082015250565b60006135906032836122d2565b915061359b82613534565b604082019050919050565b600060208201905081810360008301526135bf81613583565b9050919050565b600081519050919050565b600082825260208201905092915050565b60006135ed826135c6565b6135f781856135d1565b93506136078185602086016122e3565b6136108161230d565b840191505092915050565b6000608082019050613630600083018761240e565b61363d602083018661240e565b61364a60408301856124a4565b818103606083015261365c81846135e2565b905095945050505050565b60008151905061367681612238565b92915050565b60006020828403121561369257613691612202565b5b60006136a084828501613667565b91505092915050565b7f4e487b7100000000000000000000000000000000000000000000000000000000600052601260045260246000fdfea2646970667358221220d71adbf83caa346184ab1e98aaf76719665f562127908b2a89f65da0cd91e72164736f6c63430008120033",
  "linkReferences": {},
  "deployedLinkReferences": {}
}